:1004260050617373776F7264004F4B202020004534
:0B04360052524F52005A45524F200016
:10018C0012046C7BFF7A0479267D017F011203C86F
:10019C001200038F1CE51C60F7D3940A5041C3E591
:1001AC00199404E51894005020AE1AAF1B7C007D06
:1001BC000A1202838E1A8F1BE51C75F00A84E5F077
:1001CC00251BF51BE4351AF51A0519E519700205FE
:1001DC0018750C04AB1BAA1A7D017F02120409E5E9
:1001EC001C640B7036E51BB4290DE51AB409087BA9
:1001FC00FF7A04792F80067BFF7A0479357D0C7F9A
:10020C00011203C8E4F51AF51BF518F519750C0461
:10021C00AB1BAA1A7D017F02120409E51C640C6059
:10022C000302019CF51AF51BF518F5197BFF7A04EE
:10023C00793B7D0C7F011203C8750C04AB1BAA1A09
:0A024C007D017F0212040902019CEB
:10045700EF1FAC0670011E4C600A7D027CEFDCFECC
:04046700DDFC80EC4C
:01046B00226E
:06048000C2A58F80D2A787
:080486007F027EEFDEFEDFFCC9
:01048E00224B
:0A049B00C2A6120480C2A702048664
:1003EB00CFCDCFCECCCE1202957C007D0A120295DA
:0403FB00ED2430FFBE
:0A03FF00D2A6120480C2A7020486F1
:10044100AE07BE0104ED148006BE0209ED243F444F
:0604510080FF12049B2253
:10046C007F3812049B7F0C12049B7F0612049B7F27
:04047C000102049BDA
:0A04A500AC03120441AF040203FF90
:0603C8008B088A09890A76
:1003CE00120441E4FDAB08AA09A90A8D82758300C7
:0C03DE00120256FF60061203FF0D80E9BA
:0103EA0022F0
:0C0395007F0AEA24FFFDE434FFFC7E0038
:0803A1008E0D8F0E8C0F8D10E4
:1003A9007F017E00E4FBEBC39510E50F6480F874D0
:0E03B9008098500AAC0DAD0E1202830B80E846
:0103C7002213
:040409008A0A8B0BC5
:10040D00120441AA0CEAD39400400D120395AC0AD4
:08041D00AD0B1203EB1A80ED98
:0104250022B4
:1002EA00120441C3EA64809480400B7F2B1203FFFF
:1002FA008A168B17800E7F2D1203FFC3E49BF51716
:10030A00E49AF516AA15EAD39400400D120395ACA7
:09031A0016AD171203EB1A80ED79
:0103230022B7
:040324008A1F8B2081
:10032800120441AA21EAD3940040297F10120397AE
:10033800AC1FAD20CFCDCFCECCCE120295EF540F4F
:10034800FEC3940AEE5004243080022437FF1203BF
:04035800FF1A80D137
:01035C00227E
:04035D008A248B253E
:10036100120441AA26EAD394004028EA24FFFDE4BE
:1003710034FFFC7F027E001203A1AC24AD25CFCD5A
:10038100CFCECCCE120295EF54012430FF1203FFE1
:030391001A80D2FD
:010394002246
:10000300E4F5087590FFC2932097137F14FE120442
:10001300573097FD7F147E00120457750801209610
:10002300147F147E001204573096FD7F147E001255
:1000330004577508052095147F147E001204573069
:1000430095FD7F147E001204577508092094147FD0
:10005300147E001204573094FD7F147E001204575F
:1000630075080D7590FFC2922097147F147E0012BD
:1000730004573097FD7F147E001204577508022041
:1000830096147F147E001204573096FD7F147E0071
:100093001204577508062095147F147E0012045726
:1000A3003095FD7F147E0012045775080A209414BE
:1000B3007F147E001204573094FD7F147E001204D7
:1000C3005775080E7590FFC2912097147F147E0018
:1000D3001204573097FD7F147E00120457750803EE
:1000E3002096147F147E001204573096FD7F147EF1
:1000F300001204577508072095147F147E0012041C
:10010300573095FD7F147E0012045775080B209419
:10011300147F147E001204573094FD7F147E001266
:10012300045775080F7590FFC2902097147F147EB3
:10013300001204573097FD7F147E00120457750890
:10014300042096147F147E001204573096FD7F140A
:100153007E001204577508082095147F147E001240
:1001630004573095FD7F147E0012045775080C2048
:1001730094147F147E001204573094FD7F147E0084
:08018300120457750810AF08C3
:01018B002251
:0300000002048F68
:0C048F00787FE4F6D8FD75812602018C10
:10025600BB010CE58229F582E5833AF583E022505D
:1002660006E92582F8E622BBFE06E92582F8E222A7
:0D027600E58229F582E5833AF583E49322C1
:10028300EF8DF0A4A8F0CF8CF0A428CE8DF0A42E8F
:02029300FE2249
:10029500BC000BBE0029EF8DF084FFADF022E4CC4D
:1002A500F875F008EF2FFFEE33FEEC33FCEE9DEC16
:1002B500984005FCEE9DFE0FD5F0E9E4CEFD22ED5C
:1002C500F8F5F0EE8420D21CFEADF075F008EF2FA6
:1002D500FFED33FD4007985006D5F0F222C398FD97
:0502E5000FD5F0EA2234
:00000001FF
